:020000040800F2
:100000000000032011130008791100088511000871
:100010008B110008911100089711000800000000E2
:100020000000000000000000000000009D1100081A
:10003000A911000800000000B5110008D110000847
:1000400061130008611300086113000861130008C0
:1000500061130008611300086113000861130008B0
:1000600061130008611300086113000861130008A0
:100070006113000861130008611300086113000890
:100080006113000861130008611300086113000880
:100090006113000861130008611300086113000870
:1000A0006113000861130008611300086113000860
:1000B000AD10000861130008611300086113000807
:1000C0006113000861130008611300086113000840
:1000D0006113000861130008611300086113000830
:1000E0006113000861130008611300086113000820
:1000F0005111000861130008611300086113000822
:1001000061130008611300086113000861130008FF
:10011000611300086113000829110008011100088B
:1001200061130008611300086113000861130008DF
:1001300061130008611300086113000861130008CF
:1001400061130008611300086113000861130008BF
:1001500061130008611300086113000861130008AF
:10016000611300086113000861130008611300089F
:10017000611300086113000861130008000000000B
:10018000611300086113000861130008611300087F
:10019000C909000861130008611300086113000811
:0C01A000611300086113000861130008DF
:1001AC0010B5054C237833B9044B13B10448AFF3A5
:1001BC0000800123237010BD3404002000000000D7
:1001CC008C13000808B5034B1BB103490348AFF36C
:1001DC00008008BD00000000380400208C130008CB
:1001EC0070B50D4E0D4D761BB61006D000240134A3
:1001FC0055F8043B9847A642F9D1094E094D01F038
:10020C00BFF8761BB61006D00024013455F8043B19
:10021C009847A642F9D170BDA8130008A81300088E
:10022C00B0130008A8130008024B13B1024800F0E9
:10023C0005B8704700000000550200080023014675
:10024C001A46184600F01EB838B50A4C0A4D641B05
:10025C00A4100AD004F18043013B05EB8305013C5B
:10026C0055F804399847002CF9D1BDE8384001F015
:10027C008DB800BFB4130008B0130008704700BF5E
:10028C00704700BF2DE9F8432B4D06462868984669
:10029C000F469146FFF7F2FF284B1C68D4F8483103
:1002AC00002B3DD05A681F2A0DDC02F1010C16BB45
:1002BC000232C3F804C0286843F82270FFF7E0FF4D
:1002CC000020BDE8F8831E4B7BB34FF4C870AFF32E
:1002DC000080034648B30020D4F848114FF0010CBD
:1002EC00C3E900100246C4F84831C3F88801C3F8CA
:1002FC008C01002EDCD0012103EB8204C4F8889021
:10030C00D3F8880191400843022EC3F88801C4F841
:10031C000881CDD1D3F88C010143C3F88C11C7E708
:10032C0004F5A673C4F84831BCE72868FFF7A8FFAA
:10033C004FF0FF30C5E700BF28040020A4130008CD
:10034C000000000090B585B000AF0023FB73574B45
:10035C001B78082B02D10023FB731FE0534B1B7837
:10036C00042B03D0514B1B780C2B02D10123FB73B4
:10037C0014E04E4B1B78022B0BD04C4B1B78062BEE
:10038C0007D04A4B1B780A2B03D0484B1B780E2BFB
:10039C0002D10223FB7301E00323FB730023BB6038
:1003AC0002E0BB680133BB60BB68B3F5167FF8DBBA
:1003BC003F4B1B781A46012393409BB219463D488C
:1003CC0000F062FC00BF02213A4800F06BFC0346CF
:1003DC00002BF8D0364B1B781A46012393409BB266
:1003EC001946344800F050FC00BF0221314800F09F
:1003FC0059FC0346002BF8D000237B6032E000232D
:10040C003B6029E02C4B1B781C46FB7B284A12785E
:10041C00D200C2F13F013A68891A28481A465200A4
:10042C001A4423465B0023449B001A447B68134404
:10043C009B0103440B441B789BB219461D4800F0EA
:10044C0023FC00BF02211B4800F02CFC0346002BB0
:10045C00F8D03B6801333B603B68072BD2DD7B68EF
:10046C0001337B607B68022BC9DD00F013FB104B62
:10047C001B780133DAB20E4B1A700D4B1B78072B1D
:10048C000FD90B4B00221A70084B1B780133DAB2D0
:10049C00064B1A70054B1B780F2B02D9034B01220C
:1004AC001A7000BF1437BD4690BD00BF2C0400204D
:1004BC005004002000300140800400208C040020F7
:1004CC0080B400AF00BFBD4680BC704780B500AFA4
:1004DC00094B1B780133DAB2074B1A70064B1B78A9
:1004EC00032B02D9044B00221A70034B1B781846BD
:1004FC0000F086FA00BF80BD5104002080B483B0A8
:10050C0000AF03460A46FB711346BB71FB79082BFF
:10051C003AD0082B06DC022B4AD0042B3ED0012B00
:10052C0050D059E0202B25D0202B02DC102B17D0DB
:10053C0052E0402B0AD0802B4ED1BA792949134670
:10054C009B0013445B000B441B7846E0BA792549A9
:10055C0013469B0013445B000B4401331B783CE0B7
:10056C00BA79204913469B0013445B000B440333B8
:10057C001B7832E0BA791B4913469B0013445B008D
:10058C000B4402331B7828E0BA79164913469B00BA
:10059C0013445B000B4404331B781EE0BA791149F9
:1005AC0013469B0013445B000B4405331B7814E08B
:1005BC00BA790C4913469B0013445B000B44063379
:1005CC001B780AE0BA79074913469B0013445B0079
:1005DC000B4407331B7800E0002318460C37BD464C
:1005EC0080BC70478C0A002080B483B000AF0346F7
:1005FC00FB71FA79334913469B0013445B000B449F
:10060C0000221A70FA792F4913469B0013445B00A1
:10061C000B44013300221A70FA792A4913469B00C5
:10062C0013445B000B44023300221A70FA792549FB
:10063C0013469B0013445B000B44033300221A70D7
:10064C00FA79204913469B0013445B000B44043396
:10065C0000221A70FA791B4913469B0013445B0065
:10066C000B44053300221A70FA79164913469B0085
:10067C0013445B000B44063300221A70FA791149BB
:10068C0013469B0013445B000B44073300221A7083
:10069C00FA790C4913469B0013445B000B44093355
:1006AC0000221A70FA79074913469B0013445B0029
:1006BC000B44093300221A7000BF0C37BD4680BCB6
:1006CC00704700BF8C0A002080B582B000AF034693
:1006DC000A46FB711346BB71FB79002B10D1BA791A
:1006EC00B54913469B0013445B000B4409331B783C
:1006FC00002B00F05C81BB791846FFF775FF57E1C2
:10070C00BB7919468020FFF7F9FE0346002B0DD16B
:10071C0097F90730002B09DBBA79A74913469B00E0
:10072C0013445B000B44083380221A70BB791946C2
:10073C004020FFF7E3FE0346002B0ED1FB7903F0BC
:10074C004003002B09D1BA799B4913469B001344F3
:10075C005B000B44083340221A70BB7919462020E9
:10076C00FFF7CCFE0346002B0ED1FB7903F02003E0
:10077C00002B09D1BA79904913469B0013445B00B6
:10078C000B44083320221A70BB7919461020FFF74E
:10079C00B5FE0346002B0ED1FB7903F01003002BA2
:1007AC0009D1BA79844913469B0013445B000B446E
:1007BC00083310221A70BB7919460820FFF79EFEE9
:1007CC000346002B0ED1FB7903F00803002B09D153
:1007DC00BA79794913469B0013445B000B440833E8
:1007EC0008221A70BB7919460420FFF787FE0346CE
:1007FC00002B0ED1FB7903F00403002B09D1BA793D
:10080C006D4913469B0013445B000B4408330422D0
:10081C001A70BB7919460220FFF770FE0346002BB5
:10082C000ED1FB7903F00203002B09D1BA7962498E
:10083C0013469B0013445B000B44083302221A70CE
:10084C00BB7919460120FFF759FE0346002B0ED148
:10085C00FB7903F00103002B09D1BA7956491346F1
:10086C009B0013445B000B44083301221A7097F968
:10087C000730DB43DBB2DB09DBB2BA7918464E49F1
:10088C0013469B0013445B000B4402461A70FB7921
:10089C0003F04003002B0CBF01230023DBB2BA7919
:1008AC001846454913469B0013445B000B44013327
:1008BC0002461A70FB7903F02003002B0CBF0123B6
:1008CC000023DBB2BA7918463B4913469B0013440C
:1008DC005B000B44023302461A70FB7903F01003E1
:1008EC00002B0CBF01230023DBB2BA791846324926
:1008FC0013469B0013445B000B44033302461A70EF
:10090C00FB7903F00803002B0CBF01230023DBB29F
:10091C00BA791846284913469B0013445B000B44D4
:10092C00043302461A70FB7903F00403002B0CBF4E
:10093C0001230023DBB2BA7918461F4913469B00EA
:10094C0013445B000B44053302461A70FB7903F029
:10095C000203002B0CBF01230023DBB2BA7918462B
:10096C00154913469B0013445B000B4406330246A7
:10097C001A70FB7903F00103002B0CBF0123002339
:10098C00DBB2BA7918460C4913469B0013445B0042
:10099C000B44073302461A70BA79074913469B0079
:1009AC0013445B000B44093301221A7000E000BFB2
:1009BC000837BD4680BD00BF8C0A002080B582B0D0
:1009CC0000AF60210C4800F088F90346012B0FD1D1
:1009DC00094800F04DF90346FB71084B1A78FB7976
:1009EC0011461846FFF770FE6021034800F0AFF97E
:1009FC0000BF0837BD4680BD0034014051040020C3
:100A0C0080B582B000AF0346FB71FB79032B2BD86A
:100A1C0001A252F823F000BF350A00083F0A000873
:100A2C00510A0008630A00080B21184800F0F4F87A
:100A3C001BE00121154800F0E1F80A21134800F0F1
:100A4C00EBF812E00921114800F0E6F802210F48FA
:100A5C0000F0D4F809E008210C4800F0DDF803217F
:100A6C000A4800F0CBF800E000BF4021074800F036
:100A7C00C5F84021054800F0CFF80021044800F0EB
:100A8C0003F900BF0837BD4680BD00BF001002400F
:100A9C000034014080B500AF1021044800F0AEF8DE
:100AAC001021024800F0B8F800BF80BD00000240E1
:100ABC0080B487B000AF7860396000237B6100237D
:100ACC003B610023FB6000237B6176E001227B69A4
:100ADC0002FA03F33B613B681B683A691340FB6005
:100AEC00FA683B699A4265D17B681A687B695B003E
:100AFC00032101FA03F3DB431A407B681A607B681D
:100B0C001A683B681B7919467B695B0001FA03F391
:100B1C001A437B681A603B681B79012B03D03B6836
:100B2C001B79022B2ED17B689A687B695B000321B1
:100B3C0001FA03F3DB431A407B689A607B689A687E
:100B4C003B685B7919467B695B0001FA03F31A4336
:100B5C007B689A607B685A687B699BB21946012353
:100B6C008B40DB431A407B685A607B685B683A6851
:100B7C00927911467A6992B201FA02F292B21A4350
:100B8C007B685A607B68DA687B699BB25B000321E7
:100B9C0001FA03F3DB431A407B68DA607B68DA689E
:100BAC003B68DB7919467B695B0001FA03F31A4356
:100BBC007B68DA607B6901337B617B690F2B85D99C
:100BCC0000BF1C37BD4680BC704780B485B000AFF9
:100BDC0078600B467B800023FB737B681A697B88EB
:100BEC001340002B02D00123FB7301E00023FB73A5
:100BFC00FB7B18461437BD4680BC704780B483B06D
:100C0C0000AF78600B467B807B687A881A8300BFC4
:100C1C000C37BD4680BC704780B483B000AF7860A1
:100C2C000B467B807B687A885A8300BF0C37BD46A5
:100C3C0080BC704780B483B000AF78600B46FB700B
:100C4C00FB78002B06D0094B1A6B08497B681343C1
:100C5C000B6306E0054B1A6B7B68DB4303491340BF
:100C6C000B6300BF0C37BD4680BC70470038024098
:100C7C0080B483B000AF78607B689B899BB21846C8
:100C8C000C37BD4680BC704780B483B000AF786031
:100C9C000B467B807B687A889A8100BF0C37BD46F7
:100CAC0080BC704780B485B000AF78600B467B8009
:100CBC000023FB737B681B899AB27B8813409BB221
:100CCC00002B02D00123FB7301E00023FB73FB7BA1
:100CDC0018461437BD4680BC704780B485B000AF51
:100CEC0078600B46FB700023FB730023BB81002351
:100CFC007B8100233B81FB7803F00F03012202FA76
:100D0C0003F3BB81FB781B09DBB27B817B8901225E
:100D1C0002FA03F37B817B689B889AB27B89134030
:100D2C003B817B681B899AB2BB8913409BB2002B19
:100D3C0005D03B89002B02D00123FB7301E000237B
:100D4C00FB73FB7B18461437BD4680BC704780B4E0
:100D5C0085B000AF78600B46FB700023FB81FB78FD
:100D6C0003F00F03012202FA03F3FB81FB89DB433F
:100D7C009AB27B681A8100BF1437BD4680BC70479D
:100D8C0080B485B000AF78600B467B800023FB738A
:100D9C000023BB8100237B817B681B8A9AB27B88F2
:100DAC001340BB817B689B899AB27B8813407B8103
:100DBC00BB89002B05D07B89002B02D00123FB7350
:100DCC0001E00023FB73FB7B18461437BD4680BC47
:100DDC00704780B483B000AF78600B467B807B8813
:100DEC00DB439AB27B681A8200BF0C37BD4680BCCD
:100DFC007047000080B483B000AF03463960FB71CC
:100E0C0097F90730002B0BDA3B68DAB20C49FB7907
:100E1C0003F00F03043B1201D2B20B441A7609E023
:100E2C003B68DAB2074997F907301201D2B20B448A
:100E3C0083F8002300BF0C37BD4680BC704700BF51
:100E4C0000ED00E000E100E080B582B000AF78601A
:100E5C007B68013BB3F1807F01D301230FE00A4A89
:100E6C007B68013B53600F214FF0FF30FFF7C2FF4F
:100E7C00054B00229A60044B07221A600023184687
:100E8C000837BD4680BD00BF10E000E080B586B0DD
:100E9C0000AF804B1B68804AA2FB03239B0C1846B7
:100EAC00FFF7D2FF01211020FFF7C4FE0F237B6058
:100EBC0001233B720123BB7203237B720023FB7261
:100ECC003B1D19467548FFF7F3FD40237B6001235A
:100EDC003B720023BB7203237B720223FB723B1D0C
:100EEC0019466E48FFF7E4FD20237B6000233B721C
:100EFC000023BB7203237B720223FB723B1D19463A
:100F0C006648FFF7D5FD4F216448FFF785FE0023A7
:100F1C00FB75B8E040216148FFF770FE012000F03E
:100F2C001BFA40215D48FFF777FE012000F014FA10
:100F3C0020215A48FFF749FE0346BB75012000F0FB
:100F4C000BFA04215548FFF759FE012000F004FA72
:100F5C0004215248FFF760FE012000F0FDF920212A
:100F6C004E48FFF732FE03467B75012000F0F4F982
:100F7C0004214A48FFF742FE012000F0EDF904215C
:100F8C004648FFF749FE012000F0E6F920214348CE
:100F9C00FFF71BFE03463B75012000F0DDF9042131
:100FAC003E48FFF72BFE012000F0D6F904213B4808
:100FBC00FFF732FE012000F0CFF920213748FFF770
:100FCC0004FE0346FB74012000F0C6F904213348EB
:100FDC00FFF714FE012000F0BFF904212F48FFF7A2
:100FEC001BFE012000F0B8F920212C48FFF7EDFD85
:100FFC000346BB74012000F0AFF904212748FFF72A
:10100C00FDFD012000F0A8F904212448FFF704FE9F
:10101C00012000F0A1F920212048FFF7D6FD03465E
:10102C007B74012000F098F904211C48FFF7E6FDC1
:10103C00012000F091F904211848FFF7EDFD012083
:10104C0000F08AF920211548FFF7BFFD03463B74D9
:10105C00012000F081F904211048FFF7CFFD012099
:10106C0000F07AF904210D48FFF7D6FD012000F0BD
:10107C0073F920210948FFF7A8FD0346FB7300BF55
:10108C00FB7D0133FB75FB7D632B7FF643AF00BF0C
:10109C00FEE700BF3004002083DE1B43001002403B
:1010AC0080B500AF01214FF08040FFF769FE034689
:1010BC00002B04D001214FF08040FFF78AFE00BFC7
:1010CC0080BD000080B400AF084B1B68002B04D01F
:1010DC00064B1B68013B054A1360054B1B6801332B
:1010EC00034A136000BFBD4680BC70475804002003
:1010FC005404002080B500AF01210748FFF740FEE3
:10110C000346002B05D0FFF71DF901210248FFF71C
:10111C0060FE00BF80BD00BF0014004080B500AF72
:10112C0001210748FFF72CFE0346002B05D0FFF7E3
:10113C00CDF901210248FFF74CFE00BF80BD00BF76
:10114C000010004080B500AF01210748FFF718FEE2
:10115C000346002B05D0FFF7B3F901210248FFF736
:10116C0038FE00BF80BD00BF001C004080B400AF43
:10117C0000BFBD4680BC704780B400AFFEE780B4B2
:10118C0000AFFEE780B400AFFEE780B400AFFEE72F
:10119C0080B400AF00BFBD4680BC704780B400AFC8
:1011AC0000BFBD4680BC704780B400AF00BFBD46D9
:1011BC0080BC704780B500AF124B1B68114A43F0DE
:1011CC00010313600F4B00229A600E4B1B680D4AF3
:1011DC0023F0847323F4803313600A4B0A4A5A6059
:1011EC00084B1B68074A23F480231360054B00222D
:1011FC00DA6000F00DF8054B4FF000629A6000BF0A
:10120C0080BD00BF003802401030002400ED00E02B
:10121C0080B483B000AF00237B6000233B60354B70
:10122C001B68344A43F480331360324B1B6803F45D
:10123C0000333B607B6801337B603B68002B03D140
:10124C007B68B3F5A04FF0D12A4B1B6803F4003335
:10125C00002B02D001233B6001E000233B603B6884
:10126C00012B42D1234B1B6C224A43F08053136455
:10127C00214B1B68204A23F4404313601D4B1D4A2D
:10128C009B6893601B4B9B681A4A43F40043936022
:10129C00184B9B68174A43F4A0539360154B174A9D
:1012AC005A60144B1B68134A43F08073136000BFE1
:1012BC00104B1B6803F00073002BF9D0104B40F25D
:1012CC0004621A600B4B9B680A4A23F00303936079
:1012DC00084B9B68074A43F00203936000BF054B21
:1012EC009B6803F00C03082BF9D100BF0C37BD46EB
:1012FC0080BC704700380240007000400846400631
:10130C00003C0240DFF834D0002103E00C4B5B586A
:10131C00435004310B480C4B42189A42F6D30B4AFB
:10132C0002E0002342F8043B094B9A42F9D3FFF741
:10133C0041FFFEF755FFFFF7A9FD704700000320A2
:10134C00B4130008000000203404002034040020F2
:10135C00B40A0020FEE7000080B483B000AF7860D0
:10136C00064A7B68136000BF044B1B68002BFBD143
:10137C0000BF0C37BD4680BC704700BF580400202E
:10138C00F8B500BFF8BC08BC9E467047F8B500BF66
:08139C00F8BC08BC9E46704736
:0413A4000000002025
:0813A80035020008D101000824
:0413B000AD01000883
:1013B40000000000EC02002054030020BC030020C5
:1013C4000000000000000000000000000000000019
:1013D4000000000000000000000000000000000009
:1013E40000000000000000000000000000000000F9
:1013F40000000000000000000000000000000000E9
:1014040000000000000000000000000000000000D8
:1014140000000000000000000000000000000000C8
:1014240000000000000000000000000000000000B8
:1014340000000000000000000000000000000000A8
:101444000000000000000000000000000000000098
:101454000000000000000000010000000000000087
:101464000E33CDAB34126DE6ECDE05000B0000004C
:101474000000000000000000000000000000000068
:101484000000000000000000000000000000000058
:101494000000000000000000000000000000000048
:1014A4000000000000000000000000000000000038
:1017D40000000000000000005C0400200100000084
:0417E400003B580866
:0400000508001311CB
:00000001FF
