:020000040800F2
:1000000000000320A1100008090F0008150F0008C8
:100010001B0F0008210F0008270F00080000000038
:100020000000000000000000000000002D0F00088C
:10003000390F000800000000450F0008D90E000825
:10004000F1100008F1100008F1100008F11000088C
:10005000F1100008F1100008F1100008F11000087C
:10006000F1100008F1100008F1100008F11000086C
:10007000F1100008F1100008F1100008F11000085C
:10008000F1100008F1100008F1100008F11000084C
:10009000F1100008F1100008F1100008F11000083C
:1000A000F1100008F1100008F1100008F11000082C
:1000B000B10D0008F1100008F1100008F11000085F
:1000C000F1100008F1100008F1100008F11000080C
:1000D000F1100008F1100008F1100008F1100008FC
:1000E000F1100008F1100008F1100008F1100008EC
:1000F000F1100008F1100008F1100008F1100008DC
:10010000F1100008F1100008F1100008F1100008CB
:10011000F1100008F1100008F1100008990E000815
:10012000F1100008F1100008F1100008F1100008AB
:10013000F1100008F1100008F1100008F11000089B
:10014000F1100008F1100008F1100008F11000088B
:10015000F1100008F1100008F1100008F11000087B
:10016000F1100008F1100008F1100008F11000086B
:10017000F1100008F1100008F11000080000000064
:10018000F1100008F1100008F1100008F11000084B
:10019000F1100008F1100008F1100008F11000083B
:0C01A000F1100008F1100008F110000838
:1001AC0010B5054C237833B9044B13B10448AFF3A5
:1001BC0000800123237010BD3004002000000000DB
:1001CC00F410000808B5034B1BB103490348AFF307
:1001DC00008008BD0000000034040020F41000086A
:1001EC0070B50D4E0D4D761BB61006D000240134A3
:1001FC0055F8043B9847A642F9D1094E094D00F039
:10020C0073FF761BB61006D00024013455F8043B5E
:10021C009847A642F9D170BD1011000810110008C2
:10022C001811000810110008024B13B1024800F01D
:10023C0005B8704700000000550200080023014675
:10024C001A46184600F01EB838B50A4C0A4D641B05
:10025C00A4100AD004F18043013B05EB8305013C5B
:10026C0055F804399847002CF9D1BDE8384000F016
:10027C0041BF00BF1C11000818110008704700BFD7
:10028C00704700BF2DE9F8432B4D06462868984669
:10029C000F469146FFF7F2FF284B1C68D4F8483103
:1002AC00002B3DD05A681F2A0DDC02F1010C16BB45
:1002BC000232C3F804C0286843F82270FFF7E0FF4D
:1002CC000020BDE8F8831E4B7BB34FF4C870AFF32E
:1002DC000080034648B30020D4F848114FF0010CBD
:1002EC00C3E900100246C4F84831C3F88801C3F8CA
:1002FC008C01002EDCD0012103EB8204C4F8889021
:10030C00D3F8880191400843022EC3F88801C4F841
:10031C000881CDD1D3F88C010143C3F88C11C7E708
:10032C0004F5A673C4F84831BCE72868FFF7A8FFAA
:10033C004FF0FF30C5E700BF280400200C11000867
:10034C000000000080B485B000AF78600023FB7320
:10035C000023BB730F237B737B68DB78002B39D0B6
:10036C00274BDB68DB431B0ADBB203F00703FB7391
:10037C00FB7BC3F10403BB737A7BFB7B42FA03F375
:10038C007B737B685B781A46BB7B02FA03F3FB73C7
:10039C007B689A787B7B1340DAB2FB7B1343FB734D
:1003AC00FB7B1B01FB73174A7B681B781344FA7B9E
:1003BC0083F800237B681B7803F01F0311497A68CC
:1003CC0012785209D2B21046012202FA03F341F814
:1003DC0020300FE07B681B7803F01F0309497A6813
:1003EC0012785209D2B2104601229A4000F1200331
:1003FC0041F8232000BF1437BD4680BC704700BFB6
:10040C0000ED00E000E100E080B487B000AF786060
:10041C00396000237B6100233B610023FB600023D8
:10042C007B6176E001227B6902FA03F33B613B6856
:10043C001B683A691340FB60FA683B699A4265D1C4
:10044C007B681A687B695B00032101FA03F3DB43C9
:10045C001A407B681A607B681A683B681B791946DE
:10046C007B695B0001FA03F31A437B681A603B68F3
:10047C001B79012B03D03B681B79022B2ED17B6897
:10048C009A687B695B00032101FA03F3DB431A4092
:10049C007B689A607B689A683B685B7919467B69D4
:1004AC005B0001FA03F31A437B689A607B685A6815
:1004BC007B699BB2194601238B40DB431A407B6856
:1004CC005A607B685B683A68927911467A6992B295
:1004DC0001FA02F292B21A437B685A607B68DA68BE
:1004EC007B699BB25B00032101FA03F3DB431A40E7
:1004FC007B68DA607B68DA683B68DB7919467B6974
:10050C005B0001FA03F31A437B68DA607B69013301
:10051C007B617B690F2B85D900BF1C37BD4680BC26
:10052C00704780B483B000AF78600B467B807B68EB
:10053C007A881A8300BF0C37BD4680BC704780B4E4
:10054C0083B000AF78600B467B807B687A885A83D7
:10055C0000BF0C37BD4680BC704780B485B000AF7F
:10056C0078600B467B8013467B700023FB60002376
:10057C00BB607A787B8803F007039B0002FA03F3D5
:10058C00FB607B88DB089BB21A467B68083253F809
:10059C0022207B8803F007039B000F2101FA03F351
:1005AC00DB437988C90889B2084602EA03017B68F3
:1005BC0000F1080243F822107B88DB089BB21A4634
:1005CC007B68083253F82230FA681343BB607B888F
:1005DC00DB089BB21A467B680832B96843F82210D4
:1005EC0000BF1437BD4680BC7047000080B483B098
:1005FC0000AF78600B46FB70FB78002B06D0094BE4
:10060C001A6B08497B6813430B6306E0054B1A6BA6
:10061C007B68DB43034913400B6300BF0C37BD46BB
:10062C0080BC70470038024080B483B000AF786063
:10063C000B46FB70FB78002B06D0094B1A6C084953
:10064C007B6813430B6406E0054B1A6C7B68DB4339
:10065C00034913400B6400BF0C37BD4680BC704788
:10066C000038024080B483B000AF78600B46FB705A
:10067C00FB78002B06D0094B5A6C08497B68134356
:10068C004B6406E0054B5A6C7B68DB430349134013
:10069C004B6400BF0C37BD4680BC7047003802402D
:1006AC0080B485B000AF786039600023FB817B6833
:1006BC001B88FB81FB8903F44153FB813B681A883F
:1006CC003B685B8813439AB23B689B8813439AB28E
:1006DC003B68DB8813439AB23B681B8913439AB27D
:1006EC003B685B8913439AB23B689B8913439AB26C
:1006FC003B68DB8913439AB2FB891343FB817B680C
:10070C00FA891A807B689B8B9BB223F400639AB2A4
:10071C007B689A833B681A8A7B681A8200BF1437FD
:10072C00BD4680BC704780B483B000AF78600B4688
:10073C00FB70FB78002B08D07B681B889BB243F0C6
:10074C0040039AB27B681A8007E07B681B889BB2D7
:10075C0023F040039AB27B681A8000BF0C37BD4669
:10076C0080BC704780B483B000AF78600B467B8050
:10077C007B687A889A8100BF0C37BD4680BC704775
:10078C0080B485B000AF78600B467B800023FB7390
:10079C007B681B899AB27B8813409BB2002B02D0DA
:1007AC000123FB7301E00023FB73FB7B184614371A
:1007BC00BD4680BC7047000080B485B000AF786047
:1007CC0039600023FB817B681B88FB817B68284A8E
:1007DC00934213D07B68274A93420FD07B68B3F1C6
:1007EC00804F0BD07B68244A934207D07B68234A06
:1007FC00934203D07B68224A934208D1FB8923F0B1
:10080C007003FB813B685A88FB891343FB817B682F
:10081C001C4A93420CD07B681B4A934208D0FB893C
:10082C0023F44073FB813B681A89FB891343FB81DA
:10083C007B68FA891A803B685A687B68DA623B6885
:10084C001A887B681A857B68094A934203D07B68B7
:10085C00084A934204D13B689B7A9AB27B681A8609
:10086C007B6801229A8200BF1437BD4680BC70475A
:10087C00000001400004014000040040000800405A
:10088C00000C0040001000400014004080B483B005
:10089C0000AF78600B46FB70FB78002B08D07B68B0
:1008AC001B889BB243F001039AB27B681A8007E065
:1008BC007B681B889BB223F001039AB27B681A8079
:1008CC0000BF0C37BD4680BC704780B483B000AF0E
:1008DC0078600B467B8013467B707B78002B08D0AE
:1008EC007B689B899AB27B8813439AB27B689A8106
:1008FC0009E07B689B899AB27B88DB439BB21340EF
:10090C009AB27B689A8100BF0C37BD4680BC704799
:10091C0080B485B000AF78600B467B800023FB73FE
:10092C000023BB8100237B817B681B8A9AB27B8866
:10093C001340BB817B689B899AB27B8813407B8177
:10094C00BB89002B05D07B89002B02D00123FB73C4
:10095C0001E00023FB73FB7B18461437BD4680BCBB
:10096C00704780B483B000AF78600B467B807B8887
:10097C00DB439AB27B681A8200BF0C37BD4680BC41
:10098C007047000080B483B000AF03463960FB7140
:10099C0097F90730002B0BDA3B68DAB20C49FB797C
:1009AC0003F00F03043B1201D2B20B441A7609E098
:1009BC003B68DAB2074997F907301201D2B20B44FF
:1009CC0083F8002300BF0C37BD4680BC704700BFC6
:1009DC0000ED00E000E100E080B582B000AF78608F
:1009EC007B68013BB3F1807F01D301230FE00A4AFE
:1009FC007B68013B53600F214FF0FF30FFF7C2FFC4
:100A0C00054B00229A60044B07221A6000231846FB
:100A1C000837BD4680BD00BF10E000E080B584B053
:100A2C0000AF1D4B1B681D4AA2FB03239B091846F4
:100A3C00FFF7D2FF0023FB700023FB6002E0FB6892
:100A4C000133FB60FB68172BF9DD0423BB6014E05A
:100A5C0000237B600BE0BB68D8B27B68D9B27B68A3
:100A6C00DAB2022300F01CF87B6801337B607B68F0
:100A7C00072BF0DDBB680133BB60BB68072BE7DDE0
:100A8C0000F010F900F030F900F09DF900F0CEF90B
:100A9C000023BB7000BFFDE72C040020D34D621077
:100AAC0090B484B000AF0446084611461A4623465B
:100ABC00FB710346BB710B467B7113463B71FB7993
:100ACC00072B45D8BB79072B44D87B79072B43D808
:100ADC00FB79012202FA03F3FB73BB79DB00DAB278
:100AEC007B791344BB733B7903F00403002B08D0D0
:100AFC00BB7B1C4AD15CBB7BFA7B0A43D1B2194A43
:100B0C00D1543B7903F00203002B0DD0BB7B154A6B
:100B1C00134493F84010BB7BFA7B0A43D1B2114AC1
:100B2C0013440A4683F840203B7903F00103002B61
:100B3C0013D0BB7B0B4A134493F88010BB7BFA7B1E
:100B4C000A43D1B2074A13440A4683F8802004E0D2
:100B5C0000BF02E000BF00E000BF1037BD4690BCF4
:100B6C00704700BF7C04002080B584B000AF002328
:100B7C00FB600EE000214148FFF7F4FD00BF0221AD
:100B8C003E48FFF7FDFD0346002BF8D0FB68013310
:100B9C00FB60FB68192BEDDD00F076F80023BB60E1
:100BAC0002E0BB680133BB60BB68B3F5167FF8DBB2
:100BBC00334B1B781A46012393409BB219462F489E
:100BCC00FFF7D0FD00BF02212C48FFF7D9FD0346EB
:100BDC00002BF8D02A4B1B781A46012393409BB26A
:100BEC0019462648FFF7BEFD00BF02212348FFF738
:100BFC00C7FD0346002BF8D000237B6027E00023C1
:100C0C003B601EE01E4B1B78DB00C3F13F023B68D0
:100C1C00D11A7A6813465B0013440B449B01194AA2
:100C2C0013449BB219461548FFF79CFD00BF0221E7
:100C3C001248FFF7A5FD0346002BF8D03B680133A3
:100C4C003B603B68072BDDDD7B6801337B607B6899
:100C5C00022BD4DD00F018F8094B1B780133DAB203
:100C6C00074B1A70064B1B78072B02D9044B00223A
:100C7C001A7000BF1037BD4680BD00BF0030014068
:100C8C004C0400207C04002080B500AF10210448E7
:100C9C00FFF747FC10210248FFF751FC00BF80BD55
:100CAC000000024080B582B000AF01214020FFF768
:100CBC009DFC4FF4C0433B6001233B710023BB718F
:100CCC000023FB7103237B713B4619460548FFF754
:100CDC009BFB4FF4C0410348FFF723FC00BF0837D0
:100CEC00BD4680BD0018024080B588B000AF012120
:100CFC000120FFF77BFC01214FF48050FFF7B2FC81
:100D0C00E023BB6102233B770023BB770223FB77F5
:100D1C0003237B7707F1180319462048FFF774FB70
:100D2C001823BB6101233B770023BB7703237B771D
:100D3C000223FB7707F1180319461848FFF764FBE9
:100D4C00052205211548FFF708FC0522062113484A
:100D5C00FFF703FC052207211048FFF7FEFB0023D9
:100D6C00BB804FF48273FB8000233B8100237B818B
:100D7C000023BB814FF40073FB8100233B820023D3
:100D8C007B823B1D19460648FFF78AFC012104486B
:100D9C00FFF7C9FC00BF2037BD4680BD00000240F4
:100DAC000030014080B500AF01214FF08040FFF7CB
:100DBC00AFFD0346002B04D001214FF08040FFF71C
:100DCC00D0FD00BF80BD80B584B000AF01210120F3
:100DDC00FFF72AFC41F26703BB804FF4FA73BB6048
:100DEC000023BB810023FB803B1D19464FF0804044
:100DFC00FFF7E2FC012201214FF08040FFF765FD77
:100E0C0001214FF08040FFF741FD1C233B70002374
:100E1C007B700023BB700123FB703B461846FFF729
:100E2C0091FA00BF1037BD4680BD000080B584B07C
:100E3C0000AF01212020FFF7F7FB0A23BB804FF402
:100E4C002473BB600023BB810023FB803B1D194630
:100E5C000D48FFF7B1FC012201210B48FFF735FDCE
:100E6C0001210948FFF712FD37233B7000237B70EB
:100E7C000023BB700123FB703B461846FFF762FA58
:100E8C0000BF1037BD4680BD0014004080B500AFD8
:100E9C0001210C48FFF73CFD0346002B0FD04FF40B
:100EAC0000510948FFF73DFBFFF75EFE4FF4005180
:100EBC000548FFF744FB01210248FFF752FD00BF34
:100ECC0080BD00BF001400400018024080B400AF89
:100EDC00084B1B68002B04D0064B1B68013B054AD2
:100EEC001360054B1B680133034A136000BFBD46FA
:100EFC0080BC7047540400205004002080B400AF24
:100F0C0000BFBD4680BC704780B400AFFEE780B424
:100F1C0000AFFEE780B400AFFEE780B400AFFEE7A1
:100F2C0080B400AF00BFBD4680BC704780B400AF3A
:100F3C0000BFBD4680BC704780B400AF00BFBD464B
:100F4C0080BC704780B500AF124B1B68114A43F050
:100F5C00010313600F4B00229A600E4B1B680D4A65
:100F6C0023F0847323F4803313600A4B0A4A5A60CB
:100F7C00084B1B68074A23F480231360054B00229F
:100F8C00DA6000F00DF8054B4FF000629A6000BF7C
:100F9C0080BD00BF003802401030002400ED00E09E
:100FAC0080B483B000AF00237B6000233B60354BE3
:100FBC001B68344A43F480331360324B1B6803F4D0
:100FCC0000333B607B6801337B603B68002B03D1B3
:100FDC007B68B3F5A04FF0D12A4B1B6803F40033A8
:100FEC00002B02D001233B6001E000233B603B68F7
:100FFC00012B42D1234B1B6C224A43F080531364C8
:10100C00214B1B68204A23F4404313601D4B1D4A9F
:10101C009B6893601B4B9B681A4A43F40043936094
:10102C00184B9B68174A43F4A0539360154B174A0F
:10103C005A60144B1B68134A43F08073136000BF53
:10104C00104B1B6803F00073002BF9D0104B40F2CF
:10105C0004621A600B4B9B680A4A23F003039360EB
:10106C00084B9B68074A43F00203936000BF054B93
:10107C009B6803F00C03082BF9D100BF0C37BD465D
:10108C0080BC7047003802400070004008464006A3
:10109C00003C0240DFF834D0002103E00C4B5B58DD
:1010AC00435004310B480C4B42189A42F6D30B4A6E
:1010BC0002E0002342F8043B094B9A42F9D3FFF7B4
:1010CC0041FFFFF78DF8FFF7A9FC704700000320E4
:1010DC001C11000800000020300400203004002007
:1010EC007C070020FEE70000F8B500BFF8BC08BC88
:1010FC009E467047F8B500BFF8BC08BC9E467047CA
:04110C0000000020BF
:0811100035020008D1010008BE
:04111800AD0100081D
:10111C0000000000EC02002054030020BC0300205F
:10112C0000000000000000000000000000000000B3
:10113C0000000000000000000000000000000000A3
:10114C000000000000000000000000000000000093
:10115C000000000000000000000000000000000083
:10116C000000000000000000000000000000000073
:10117C000000000000000000000000000000000063
:10118C000000000000000000000000000000000053
:10119C000000000000000000000000000000000043
:1011AC000000000000000000000000000000000033
:1011BC000000000000000000010000000000000022
:1011CC000E33CDAB34126DE6ECDE05000B000000E7
:1011DC000000000000000000000000000000000003
:1011EC0000000000000000000000000000000000F3
:1011FC0000000000000000000000000000000000E3
:10120C0000000000000000000000000000000000D2
:10153C00000000000000000058040020003B580888
:04000005080010A13E
:00000001FF
